{
  "transactions": [
    {
      "hash": "0x59acbb63fb70ec4dca721e9acad98e1870a1bd50aa90c099ea8998e3cc28ca6a",
      "transactionType": "CALL",
      "contractName": null,
      "contractAddress": "0x05c837d06053e06e029dc814d1b8d79c1823443e",
      "function": "mint(address,uint256)",
      "arguments": [
        "0xF1CB3C64439fea47Af4B62992A704F9aB6010a9d",
        "10000000000"
      ],
      "transaction": {
        "from": "0xf1cb3c64439fea47af4b62992a704f9ab6010a9d",
        "to": "0x05c837d06053e06e029dc814d1b8d79c1823443e",
        "gas": "0x16f7d",
        "value": "0x0",
        "input": "0x40c10f19000000000000000000000000f1cb3c64439fea47af4b62992a704f9ab6010a9d00000000000000000000000000000000000000000000000000000002540be400",
        "nonce": "0xc",
        "chainId": "0x14a34"
      },
      "additionalContracts": [],
      "isFixedGasLimit": false
    },
    {
      "hash": "0x76d7f5d7d83ce29a577515aa71eac54714bf84694eb6289f4bec807c95eaa4fe",
      "transactionType": "CALL",
      "contractName": null,
      "contractAddress": "0x97fb42929544be4da0453889e9557d098bd8b4fc",
      "function": "initializeReputation(address)",
      "arguments": [
        "0x1111111111111111111111111111111111111111"
      ],
      "transaction": {
        "from": "0xf1cb3c64439fea47af4b62992a704f9ab6010a9d",
        "to": "0x97fb42929544be4da0453889e9557d098bd8b4fc",
        "gas": "0x24d0a",
        "value": "0x0",
        "input": "0x7bb27c110000000000000000000000001111111111111111111111111111111111111111",
        "nonce": "0xd",
        "chainId": "0x14a34"
      },
      "additionalContracts": [],
      "isFixedGasLimit": false
    }
  ],
  "receipts": [
    {
      "status": "0x1",
      "cumulativeGasUsed": "0x70b1a1",
      "logs": [
        {
          "address": "0x05c837d06053e06e029dc814d1b8d79c1823443e",
          "topics": [
            "0xddf252ad1be2c89b69c2b068fc378daa952ba7f163c4a11628f55a4df523b3ef",
            "0x0000000000000000000000000000000000000000000000000000000000000000",
            "0x000000000000000000000000f1cb3c64439fea47af4b62992a704f9ab6010a9d"
          ],
          "data": "0x00000000000000000000000000000000000000000000000000000002540be400",
          "blockHash": "0x0000000000000000000000000000000000000000000000000000000000000000",
          "blockNumber": "0x249c234",
          "blockTimestamp": "0x69a6e348",
          "transactionHash": "0x76d7f5d7d83ce29a577515aa71eac54714bf84694eb6289f4bec807c95eaa4fe",
          "transactionIndex": "0x17",
          "logIndex": "0x140",
          "removed": false
        }
      ],
      "logsBloom": "0x00000000001000000000000000000000000000000000000000000000000000000000000000000000000000000000000000000009000000000000000000000000000000000000000000000008000000000000000000000000000000000000000000000000020000000000000000000800000000000000000000000010000000000000000000000000000000000000000000000000000000000000000000000000000000000000000000000000000000000000000000000000000800000000000000000002000000000010000000000000080000000000000000000000000020000000000000000000000000000000000000000000000000000000000000000000",
      "type": "0x2",
      "transactionHash": "0x76d7f5d7d83ce29a577515aa71eac54714bf84694eb6289f4bec807c95eaa4fe",
      "transactionIndex": "0x17",
      "blockHash": "0x0000000000000000000000000000000000000000000000000000000000000000",
      "blockNumber": "0x249c234",
      "gasUsed": "0x10a0f",
      "effectiveGasPrice": "0x5b8d80",
      "blobGasUsed": "0x364c",
      "from": "0xf1cb3c64439fea47af4b62992a704f9ab6010a9d",
      "to": "0x05c837d06053e06e029dc814d1b8d79c1823443e",
      "contractAddress": null,
      "daFootprintGasScalar": "0x8b",
      "l1BaseFeeScalar": "0x44d",
      "l1BlobBaseFee": "0x6699d3c",
      "l1BlobBaseFeeScalar": "0xa118b",
      "l1Fee": "0x36439a06d",
      "l1GasPrice": "0xfca9da01",
      "l1GasUsed": "0x640"
    },
    {
      "status": "0x1",
      "cumulativeGasUsed": "0x725c16",
      "logs": [
        {
          "address": "0x97fb42929544be4da0453889e9557d098bd8b4fc",
          "topics": [
            "0xc17e77081800e4bec45161da763d23d62f41146fb2629ee32a8fea0765743a12",
            "0x0000000000000000000000001111111111111111111111111111111111111111"
          ],
          "data": "0x00000000000000000000000000000000000000000000000000000000000013880000000000000000000000000000000000000000000000000000000000000040000000000000000000000000000000000000000000000000000000000000000b496e697469616c697a6564000000000000000000000000000000000000000000",
          "blockHash": "0x0000000000000000000000000000000000000000000000000000000000000000",
          "blockNumber": "0x249c234",
          "blockTimestamp": "0x69a6e348",
          "transactionHash": "0x59acbb63fb70ec4dca721e9acad98e1870a1bd50aa90c099ea8998e3cc28ca6a",
          "transactionIndex": "0x18",
          "logIndex": "0x141",
          "removed": false
        }
      ],
      "logsBloom": "0x00000000000000000000000800000000000000000000000000000000000000000000000000000000000000000000000000000000000000000000000000000000000000000000000000020000400000000000000000000000000000000000000000000000000000000000000000000000000000000000000004000000000200000000000000000000000000000000000000000000000000000000000000000000240000000000000000000000000000000000000000002000000000000000000000000000000000000000000000000000000000000000000000000000000000000000000000000000000000000080000000000000000000000000000000000000",
      "type": "0x2",
      "transactionHash": "0x59acbb63fb70ec4dca721e9acad98e1870a1bd50aa90c099ea8998e3cc28ca6a",
      "transactionIndex": "0x18",
      "blockHash": "0x0000000000000000000000000000000000000000000000000000000000000000",
      "blockNumber": "0x249c234",
      "gasUsed": "0x1aa75",
      "effectiveGasPrice": "0x5b8d80",
      "blobGasUsed": "0x364c",
      "from": "0xf1cb3c64439fea47af4b62992a704f9ab6010a9d",
      "to": "0x97fb42929544be4da0453889e9557d098bd8b4fc",
      "contractAddress": null,
      "daFootprintGasScalar": "0x8b",
      "l1BaseFeeScalar": "0x44d",
      "l1BlobBaseFee": "0x6699d3c",
      "l1BlobBaseFeeScalar": "0xa118b",
      "l1Fee": "0x36439a06d",
      "l1GasPrice": "0xfca9da01",
      "l1GasUsed": "0x640"
    }
  ],
  "libraries": [],
  "pending": [],
  "returns": {},
  "timestamp": 1772544839478,
  "chain": 84532,
  "commit": "fc4fc36"
}